:100000000C945D000C9485000C9485000C94850084
:100010000C9485000C9485000C9485000C9485004C
:100020000C9485000C9485000C9485000C940F03AF
:100030000C9485000C9485000C9485000C9485002C
:100040000C94C5020C9485000C9493020C946D02E0
:100050000C9485000C9485000C9485000C9485000C
:100060000C9485000C94850000000008000201003B
:100070000003040700000000000000000000000072
:10008000250028002B0000000000240027002A0083
:10009000040404040404040402020202020203032E
:1000A0000303030301020408102040800102040836
:1000B0001020010204081020CB0311241FBECFEF33
:1000C000D8E0DEBFCDBF11E0A0E0B1E0EEEEFBE096
:1000D00002C005900D92AA32B107D9F721E0AAE239
:1000E000B1E001C01D92A93FB207E1F710E0CDE5F4
:1000F000D0E004C02197FE010E94EF05CC35D10766
:10010000C9F70E9428040C94F5050C940000E091B6
:10011000F601EC3088F54091F70128E830E0241B27
:10012000310947FD3395220F331F220F331F8217EA
:10013000930784F04091F80128E532E0241B31094F
:1001400047FD3395220F331F220F331F821793076A
:100150000CF49C0122503109220F331F4FB7F89441
:100160008E2F90E0FC01EE0FFF1FE80FF91FEF52FA
:10017000FE4F328321834FBF0895AF92BF92CF923B
:10018000DF92EF92FF920F931F93CF93DF936C0157
:100190007B018B01040F151FEB015E01AE18BF0838
:1001A000C017D10759F06991D601ED91FC910190EA
:1001B000F081E02DC6010995892B79F7C501DF9102
:1001C000CF911F910F91FF90EF90DF90CF90BF9054
:1001D000AF900895FC01538D448D252F30E0842F7E
:1001E00090E0821B930B541710F0CF96089501975F
:1001F0000895FC01918D828D981761F0A28DAE0F4C
:10020000BF2FB11D5D968C91928D9F5F9F73928FD2
:1002100090E008958FEF9FEF0895FC01918D828DFE
:10022000981731F0828DE80FF11D858D90E00895CB
:100230008FEF9FEF0895FC01918D228D892F90E023
:10024000805C9F4F821B91098F739927089584E3E7
:1002500091E00E941B0121E0892B09F420E0822F0C
:10026000089580E090E0892B29F00E9427018111F8
:100270000C9400000895FC01A48DA80FB92FB11DA6
:10028000A35ABF4F2C91848D90E001968F739927CC
:10029000848FA689B7892C93A089B1898C918370AA
:1002A00080648C93938D848D981306C00288F389A3
:1002B000E02D80818F7D80830895EF92FF920F93D0
:1002C0001F93CF93DF93EC0181E0888F9B8D8C8D02
:1002D00098131AC0E889F989808185FF15C09FB7F6
:1002E000F894EE89FF896083E889F98980818370B9
:1002F000806480839FBF81E090E0DF91CF911F9168
:100300000F91FF90EF900895F62E0B8D10E00F5F88
:100310001F4F0F731127E02E8C8D8E110CC00FB65E
:1003200007FCFACFE889F989808185FFF5CFCE01F6
:100330000E943B01F1CFEB8DEC0FFD2FF11DE35A35
:10034000FF4FF0829FB7F8940B8FEA89FB89808179
:100350008062CFCFCF93DF93EC01888D8823B9F0F3
:10036000AA89BB89E889F9898C9185FD03C08081C0
:1003700086FD0DC00FB607FCF7CF8C9185FFF2CF3D
:10038000808185FFEDCFCE010E943B01E9CFDF9157
:10039000CF91089590E0FC01E859FF4F2491FC01B2
:1003A000EC55FF4F3491FC01E057FF4FE491EE23F1
:1003B000C9F0222339F0233001F1A8F4213019F1DA
:1003C000223029F1F0E0EE0FFF1FE458FF4FA59116
:1003D000B4918FB7F894EC91611126C030953E230B
:1003E0003C938FBF08952730A9F02830C9F02430FE
:1003F00049F7809180008F7D03C0809180008F77C6
:1004000080938000DFCF84B58F7784BDDBCF84B548
:100410008F7DFBCF8091B0008F778093B000D2CFDB
:100420008091B0008F7DF9CF3E2BDACF3FB7F894A3
:100430008091300190913101A0913201B09133014E
:1004400026B5A89B05C02F3F19F00196A11DB11D2F
:100450003FBFBA2FA92F982F8827BC01CD01620F6B
:10046000711D811D911D42E0660F771F881F991F26
:100470004A95D1F708958F929F92AF92BF92CF92F3
:10048000DF92EF92FF924B015C010E9416026B011A
:100490007C010E9416026C197D098E099F09683E35
:1004A000734081059105A8F321E0821A9108A10803
:1004B000B10888EEC80E83E0D81EE11CF11C81143F
:1004C0009104A104B10429F7FF90EF90DF90CF9041
:1004D000BF90AF909F908F9008951F920F920FB68C
:1004E0000F9211242F933F934F935F936F937F93BA
:1004F0008F939F93AF93BF93EF93FF9384E391E028
:100500000E943B01FF91EF91BF91AF919F918F911D
:100510007F916F915F914F913F912F910F900FBEFF
:100520000F901F9018951F920F920FB60F921124E3
:100530002F938F939F93EF93FF93E0914401F0915A
:1005400045018081E0914A01F0914B0182FD1BC081
:10055000908180914D018F5F8F7320914E018217A2
:1005600041F0E0914D01F0E0EC5CFE4F958F8093FF
:100570004D01FF91EF919F918F912F910F900FBEA1
:100580000F901F9018958081F4CF1F920F920FB695
:100590000F9211242F933F938F939F93AF93BF9309
:1005A00080912C0190912D01A0912E01B0912F01ED
:1005B00030912B0123E0230F2D3758F50196A11D13
:1005C000B11D20932B0180932C0190932D01A093BA
:1005D0002E01B0932F018091300190913101A091B3
:1005E0003201B09133010196A11DB11D80933001FC
:1005F00090933101A0933201B0933301BF91AF9139
:100600009F918F913F912F910F900FBE0F901F9050
:10061000189526E8230F0296A11DB11DD2CF1F9277
:100620000F920FB60F9211242F933F934F935F9326
:100630006F937F938F939F93AF93BF93CF93DF93EA
:10064000EF93FF9380912A01C091F501D0E087FFDD
:1006500024C0109285001092840080912A018F5F3F
:1006600080932A0180912A01082E000C990B8C1787
:100670009D0724F480912A018C30C4F1809184007C
:1006800090918500049680349C4908F47AC080914A
:10069000840090918500049676C080912A01082EEE
:1006A000000C990B8C179D07C4F6E0912A018E2F40
:1006B000EE0F990BFC01EE0FFF1FE80FF91FEF5231
:1006C000FE4F808186FFC9CFE0912A018E2FEE0F69
:1006D000990BFC01EE0FFF1FE80FF91FEF52FE4FC1
:1006E000808160E08F730E94CA01B7CF209184009F
:1006F00030918500E0912A018E2FEE0F990BFC01BD
:10070000EE0FFF1FE80FF91FEF52FE4F818192811C
:10071000820F931F9093890080938800E0912A01B3
:100720008E2FEE0F990BFC01EE0FFF1FE80FF91F44
:10073000EF52FE4F808186FF11C0E0912A018E2F7B
:10074000EE0F990BFC01EE0FFF1FE80FF91FEF52A0
:10075000FE4F808161E08F730E94CA01FF91EF918B
:10076000DF91CF91BF91AF919F918F917F916F91C9
:100770005F914F913F912F910F900FBE0F901F905F
:10078000189580E49CE990938900809388008FEF0E
:1007900080932A01E3CF109237011092360188EE40
:1007A00093E0A0E0B0E08093380190933901A093EA
:1007B0003A01B0933B0184E091E09093350180933E
:1007C000340185EC90E0909341018093400184ECEA
:1007D00090E0909343018093420180EC90E09093ED
:1007E00045018093440181EC90E090934701809310
:1007F000460182EC90E0909349018093480186EC99
:1008000090E090934B0180934A0110924D01109219
:100810004E0110924F01109250018091F5018C30E1
:1008200098F491E0980F9093F5018093F60190E091
:10083000FC01EE0FFF1FE80FF91FEF52FE4F88EB90
:100840009BE09283818308958FEF8093F601089552
:10085000789484B5826084BD84B5816084BD85B59B
:10086000826085BD85B5816085BD80916E008160A7
:1008700080936E001092810080918100826080934D
:10088000810080918100816080938100809180004F
:100890008160809380008091B10084608093B1007A
:1008A0008091B00081608093B00080917A00846074
:1008B00080937A0080917A00826080937A008091A0
:1008C0007A00816080937A0080917A0080688093BA
:1008D0007A001092C100E0914401F091450182E05C
:1008E0008083E0914001F09141011082E09142014A
:1008F000F09143018FEC808310924C01E09148010C
:10090000F091490186E08083E0914601F091470132
:10091000808180618083E0914601F0914701808170
:1009200088608083E0914601F09147018081806872
:100930008083E0914601F091470180818F7D808323
:100940008091F6018C3008F068C0EDEAF0E0249167
:10095000E9E9F0E08491882399F090E0880F991FED
:10096000FC01EA57FF4FA591B491FC01E458FF4FF9
:10097000859194918FB7F894EC91E22BEC938FBF13
:100980008091F601282F30E0F901EE0FFF1FE20FF2
:10099000F31FEF52FE4F9081907C996090831092EC
:1009A000F7011092F8012CE0622F0E94E305829F6C
:1009B000B001112430E020E0AB01420F531FFA01D7
:1009C000EE0FFF1FE40FF51FEF52FE4F908196FDD3
:1009D00016C02F5F3F4F2C30310571F781110FC0CA
:1009E0001092800082E08093810010928500109226
:1009F0008400B19A80916F00826080936F00E091D3
:100A0000F6018E2F90E0FC01EE0FFF1FE80FF91F9B
:100A1000EF52FE4F808180648083C8E8D0E008E513
:100A200012E054EB452E512C612C712C60E0A62E67
:100A300060E0B62E8091F7019E01281B310987FDE9
:100A40003395C901880F991F880F991F0E9487004D
:100A500060E273E080E090E00E943B028091F70149
:100A60006E01C81AD10887FDD394CC0CDD1CCC0CC8
:100A7000DD1C0D2C000CEE08FF088091F801980198
:100A8000281B310987FD3395220F331F220F331F97
:100A9000032E000C440B550B2C193D094E095F0920
:100AA000A6E9B0E00E94A705A30192010E94880573
:100AB000DA01C9018C0D9D1DAE1DBF1D0E9487006E
:100AC00060E273E080E090E00E943B0243E150E08E
:100AD00062E171E084E391E00E94BD0042E050E0F9
:100AE00066E271E084E391E00E94BD006AEF70E08D
:100AF00080E090E00E943B02A114B10409F49ACF77
:100B00000E942701882309F495CF0E94000092CF0C
:100B1000052E97FB1EF400940E949F0557FD07D0F9
:100B20000E94B20507FC03D04EF40C949F0550952B
:100B30004095309521953F4F4F4F5F4F08959095C9
:100B40008095709561957F4F8F4F9F4F08950E94BC
:100B5000D405A59F900DB49F900DA49F800D911D6D
:100B600011240895A1E21A2EAA1BBB1BFD010DC082
:100B7000AA1FBB1FEE1FFF1FA217B307E407F5074D
:100B800020F0A21BB30BE40BF50B661F771F881F29
:100B9000991F1A9469F760957095809590959B01BF
:100BA000AC01BD01CF010895A29FB001B39FC00168
:100BB000A39F700D811D1124911DB29F700D811D89
:100BC0001124911D0895991B79E004C0991F96176F
:100BD00008F0961B881F7A95C9F780950895EE0F47
:0E0BE000FF1F0590F491E02D0994F894FFCFCB
:100BEE00000000005D01BD00EA00AA011B01F90032
:100BFE000D01536572766F203A20313530206465D1
:0A0C0E006772656573000D0A0000AF
:107E0000112484B714BE81FFF0D085E080938100F7
:107E100082E08093C00088E18093C10086E0809377
:107E2000C20080E18093C4008EE0C9D0259A86E02C
:107E300020E33CEF91E0309385002093840096BBD3
:107E4000B09BFECF1D9AA8958150A9F7CC24DD24C4
:107E500088248394B5E0AB2EA1E19A2EF3E0BF2EE7
:107E6000A2D0813461F49FD0082FAFD0023811F036
:107E7000013811F484E001C083E08DD089C08234E0
:107E800011F484E103C0853419F485E0A6D080C0E4
:107E9000853579F488D0E82EFF2485D0082F10E0AE
:107EA000102F00270E291F29000F111F8ED06801E7
:107EB0006FC0863521F484E090D080E0DECF843638
:107EC00009F040C070D06FD0082F6DD080E0C81688
:107ED00080E7D80618F4F601B7BEE895C0E0D1E017
:107EE00062D089930C17E1F7F0E0CF16F0E7DF06D8
:107EF00018F0F601B7BEE89568D007B600FCFDCFD4
:107F0000A601A0E0B1E02C9130E011968C91119780
:107F100090E0982F8827822B932B1296FA010C0160
:107F200087BEE89511244E5F5F4FF1E0A038BF0790
:107F300051F7F601A7BEE89507B600FCFDCF97BE46
:107F4000E89526C08437B1F42ED02DD0F82E2BD052
:107F50003CD0F601EF2C8F010F5F1F4F84911BD097
:107F6000EA94F801C1F70894C11CD11CFA94CF0C13
:107F7000D11C0EC0853739F428D08EE10CD085E9AC
:107F80000AD08FE07ACF813511F488E018D01DD067
:107F900080E101D065CF982F8091C00085FFFCCF94
:107FA0009093C60008958091C00087FFFCCF809118
:107FB000C00084FD01C0A8958091C6000895E0E648
:107FC000F0E098E1908380830895EDDF803219F02E
:107FD00088E0F5DFFFCF84E1DECF1F93182FE3DFCA
:107FE0001150E9F7F2DF1F91089580E0E8DFEE27F6
:047FF000FF270994CA
:027FFE00040479
:0400000300007E007B
:00000001FF
