:100000000C945D000C947A000C947A000C947A00A5
:100010000C947A000C947A000C947A000C941B01D6
:100020000C947A000C947A000C947A000C947A0068
:100030000C947A000C947A000C947A000C947A0058
:100040000C94DE010C947A000C947A000C947A00E3
:100050000C947A000C947A000C947A000C947A0038
:100060000C9428020C947A000000000800020100A1
:100070000003040700000000000000000200000070
:1000800000250028002B0000000000240027002A83
:100090000004040404040404040202020202020331
:1000A000030303030301020408102040800102043B
:1000B0000810200102040810200011241FBECFEFF9
:1000C000D8E0DEBFCDBF11E0A0E0B1E0EAE2F9E0A8
:1000D00002C005900D92A230B107D9F721E0A2E04D
:1000E000B1E001C01D92A738B207E1F70E944303B7
:1000F0000C9493040C940000E2EBF0E02491EEE900
:10010000F0E08491882399F090E0880F991FFC011A
:10011000E957FF4FA591B491FC01E358FF4F85913A
:1001200094918FB7F894EC91E22BEC938FBF0895E4
:100130003FB7F8948091720190917301A09174017E
:10014000B091750126B5A89B05C02F3F19F0019607
:10015000A11DB11D3FBFBA2FA92F982F8827BC0121
:10016000CD01620F711D811D911D42E0660F771F49
:10017000881F991F4A95D1F7089585ED8093BC009B
:100180008091BC0084FDFCCF10924701089520911E
:100190002301260F3327331F21323105ECF4209140
:1001A0004701FC0190E080E0243069F082E008958E
:1001B000A09123012191AC014D5F5E4FA40FB52F9B
:1001C000B11D2C930196861798F380912301680F37
:1001D0006093230180E0089581E0089508958FEFF2
:1001E0009FEF08958FEF9FEF08958091020190E0B7
:1001F0009195819591090895CF93DF93CB01EA0101
:10020000642F0E94C700CE01DF91CF910895CF9354
:10021000DF931F92CDB7DEB7698361E0CE0101960F
:100220000E94C70081E090E00F90DF91CF91089588
:1002300090E080E008951F920F920FB60F92112464
:100240002F933F938F939F93AF93BF93EF93FF931E
:1002500080917B0190917C01A0917D01B0917E0104
:10026000892B8A2B8B2BB1F190917601E09177014C
:10027000F091780180818927808380917B01909122
:100280007C01A0917D01B0917E01181619061A0615
:100290001B069CF480917B0190917C01A0917D01D3
:1002A000B0917E010197A109B10980937B019093E0
:1002B0007C01A0937D01B0937E01FF91EF91BF91EE
:1002C000AF919F918F913F912F910F900FBE0F9003
:1002D0001F90189580910001ECE7F0E0E4919FEF0A
:1002E00090930001E13009F431C068F1E23009F483
:1002F00033C090E0FC01E859FF4F2491FC01EB551D
:10030000FF4F3491FC01EF56FF4FE491EE23A9F229
:10031000222351F0233009F43AC078F5213009F452
:100320003CC0223009F43DC0F0E0EE0FFF1FE3585F
:10033000FF4FA591B4918FB7F894EC9130953E237F
:100340003C938FBFBACF10926E00D3CF90916F00C5
:100350009D7F90936F00CDCF909170009D7F909383
:10036000700091E09093B0009091B100987F9460FC
:100370009093B1001092B300BCCF2730A9F0283081
:10038000C9F0243089F6809180008F7D03C0809170
:1003900080008F7780938000C7CF84B58F7784BD2E
:1003A000C3CF84B58F7DFBCF8091B0008F778093D2
:1003B000B000BACF8091B0008F7DF9CF1F920F921D
:1003C0000FB60F9211242F933F938F939F93AF9368
:1003D000BF9380916E0190916F01A0917001B091D7
:1003E000710130916D0123E0230F2D3758F50196EF
:1003F000A11DB11D20936D0180936E0190936F013B
:10040000A0937001B093710180917201909173017A
:10041000A0917401B09175010196A11DB11D809349
:10042000720190937301A0937401B0937501BF9111
:10043000AF919F918F913F912F910F900FBE0F9091
:100440001F90189526E8230F0296A11DB11DD2CF4B
:100450001F920F920FB60F9211242F933F934F9339
:100460005F936F937F938F939F93AF93BF93EF931C
:10047000FF938091B900887F803609F44AC0F0F577
:10048000883209F4A5C018F5803109F499C0B8F490
:10049000882309F4F5C0883009F492C0FF91EF91E8
:1004A000BF91AF919F918F917F916F915F914F918C
:1004B0003F912F910F900FBE0F901F90189588318C
:1004C00009F486C0803251F78093460114C080340D
:1004D00009F49BC040F48033B9F38833F9F6809374
:1004E000460185ECAEC0803509F483C0883509F437
:1004F00094C0883499F60E94BD00D0CF883909F4A1
:100500008AC038F5883729F050F4883611F08037E2
:1005100029F683E0809347011092450155C0883841
:1005200009F479C0803919F0803809F0B7CF80918B
:100530004501803208F06FC0E091450181E08E0FE7
:10054000809345018091BB00F0E0EB5DFE4F80831E
:100550003BC0803B39F0D0F4803A09F477C0883A48
:1005600009F09CCF84E080934701109224011092FF
:100570002301F0E0E0E009958091230181110FC093
:1005800081E0809323011092030109C0803C09F4AB
:10059000A8CF883C09F4A5CF883B09F07FCFE09134
:1005A000240181E08E0F80932401F0E0ED5FFE4F87
:1005B00080818093BB00909124018091230129C008
:1005C00080916C018093BB0085EC8093BC0066CF6A
:1005D00090916B0180916A01981758F5E0916B0139
:1005E00081E08E0F80936B01F0E0E65BFE4F80812F
:1005F000E9CFE0916B0181E08E0F80936B018091D8
:10060000BB00F0E0E65BFE4F808390916B01809130
:100610006A019817C8F285E8D8CFE0916B0181E0B4
:100620008E0F80936B018091BB00F0E0E65BFE4F84
:1006300080838091490181115ECF81E080934801E0
:1006400084EA8093BC001092470128CF85EC809308
:10065000BC001092470180914501803230F4E09156
:100660004501F0E0EB5DFE4F10826091450170E0C6
:1006700085E291E0F0E0E0E00995109245010ECFAF
:100680001092460138CF789484B5826084BD84B5D9
:10069000816084BD85B5826085BD85B5816085BD7D
:1006A00080916E00816080936E0010928100809135
:1006B00081008260809381008091810081608093BD
:1006C0008100809180008160809380008091B100E2
:1006D00084608093B1008091B00081608093B0000D
:1006E00080917A00846080937A0080917A008260A1
:1006F00080937A0080917A00816080937A00809163
:100700007A00806880937A001092C1000E947C0079
:1007100044E1242E44E3342E0EE910E058E6C52EC1
:10072000DD24D394E12CF12CDDE0809100018D30AB
:1007300029F5ECE7F0E0C491C7FD8BC00E947C0076
:10074000CC2309F44AC0C23009F4D3C0C13009F443
:1007500069C0C23009F4D5C0C1117BC084E187BD36
:10076000C0928301D0928401E0928501F0928601CB
:1007700080916E00826080936E006BC08F3F09F0A5
:1007800068C0D0930001ECE7F0E0C491CF3F09F4DA
:1007900060C0C13041F140F0C23009F487C0C7FDEC
:1007A00058C00E947C00CFCF14BC15BC84B58260B9
:1007B00084BD85B5816085BDF8018491E82FF0E0A6
:1007C000EE0FFF1FE358FF4F85919491E2EBF0E0AD
:1007D000849180937A010E947C0085B5887F836034
:1007E00085BD8FECBCCF109280001092810080916B
:1007F0008100886080938100809181008160809376
:100800008100F8018491E82FF0E0EE0FFF1FE3581C
:10081000FF4F85919491E2EBF0E084918093790110
:100820000E947C0080918100887F8160809381009C
:100830003092890020928800C0927F01D09280017E
:10084000E0928101F092820180916F00826080933A
:100850006F000E9498002B013C0188EE882E83E0F7
:10086000982EA12CB12C0E94980064197509860954
:100870009709683E734081059105A8F3F1E08F1A4E
:100880009108A108B10828EE420E23E0521E611C17
:10089000711C81149104A104B10429F780E090E057
:1008A000892B09F442CF0E9400003ECF1092B00085
:1008B0001092B1008091B00082608093B00080916E
:1008C000B10081608093B100F8018491E82FF0E0DD
:1008D000EE0FFF1FE358FF4F85919491909378019D
:1008E00080937701E2EBF0E08491809376010E949F
:1008F0007C008091B100887F84608093B1008FEC90
:1009000001C084E18093B300C0927B01D0927C014E
:10091000E0927D01F0927E01809170008260809370
:0A092000700097CF0895F894FFCF00
:02092A00FF00CC
:00000001FF
