:100000000C945E000C9486000C9486000C94860080
:100010000C9486000C9486000C9486000C941801B5
:100020000C9486000C9486000C9486000C94E401D9
:100030000C9486000C9486000C9486000C94860028
:100040000C949A010C9486000C9486000C94860003
:100050000C9486000C9486000C9486000C94860008
:100060000C9486000C948600000000080002010039
:100070000003040700000000000000000200000070
:1000800000250028002B0000000000240027002A83
:100090000004040404040404040202020202020331
:1000A000030303030301020408102040800102043B
:1000B00008102001020408102000EF0311241FBEC5
:1000C000CFEFD8E0DEBFCDBF11E0A0E0B1E0ECE3C0
:1000D000F8E002C005900D92A230B107D9F721E0F7
:1000E000A2E0B1E001C01D92AB34B207E1F710E02D
:1000F000CEE5D0E004C02197FE010E941604CD3564
:10010000D107C9F70E94A0020C941C040C940000B3
:1001100090E0FC01EB55FF4F24918F569F4FFC015F
:100120008491882399F090E0880F991FFC01E9578A
:10013000FF4FA591B491FC01E358FF4F8591949135
:100140008FB7F894EC91E22BEC938FBF089590E079
:10015000FC01E859FF4F2491FC01EB55FF4F34910E
:10016000FC01EF56FF4FE491EE23C9F0222339F052
:10017000233001F1A8F4213019F1223029F1F0E007
:10018000EE0FFF1FE358FF4FA591B4918FB7F8947E
:10019000EC91611126C030953E233C938FBF0895AA
:1001A0002730A9F02830C9F0243049F78091800029
:1001B0008F7D03C0809180008F7780938000DFCF98
:1001C00084B58F7784BDDBCF84B58F7DFBCF8091E5
:1001D000B0008F778093B000D2CF8091B0008F7D38
:1001E000F9CF3E2BDACF3FB7F8948091360190914A
:1001F0003701A0913801B091390126B5A89B05C0FF
:100200002F3F19F00196A11DB11D3FBFBA2FA92F95
:10021000982F8827BC01CD01620F711D811D911D92
:1002200042E0660F771F881F991F4A95D1F70895FE
:100230001F920F920FB60F9211242F933F934F935B
:100240005F936F937F938F939F93AF93BF93EF933E
:10025000FF9380913F0190914001A0914101B091A5
:100260004201892B8A2B8B2BD1F190913A01E0919D
:100270003B01F0913C0180818927808380913F017F
:1002800090914001A0914101B091420118161906C8
:100290001A061B069CF480913F0190914001A091A9
:1002A0004101B09142010197A109B10980933F0139
:1002B00090934001A0934101B0934201FF91EF91CF
:1002C000BF91AF919F918F917F916F915F914F916E
:1002D0003F912F910F900FBE0F901F901895809116
:1002E0000001ECE7F0E0E4919FEF90930001E13032
:1002F00051F030F0E23069F060E00E94A700DECFFC
:1003000010926E00F9CF90916F009D7F90936F00D7
:10031000F3CF909170009D7F9093700091E0909347
:10032000B0009091B100987F94609093B1001092CA
:10033000B300E2CF1F920F920FB60F9211242F93AA
:100340003F938F939F93AF93BF938091320190918E
:100350003301A0913401B09135013091310123E096
:10036000230F2D3758F50196A11DB11D20933101A2
:100370008093320190933301A0933401B0933501FF
:100380008091360190913701A0913801B0913901E7
:100390000196A11DB11D8093360190933701A09362
:1003A0003801B0933901BF91AF919F918F913F91E7
:1003B0002F910F900FBE0F901F90189526E8230FD6
:1003C0000296A11DB11DD2CF1F920F920FB60F92B0
:1003D00011242F933F934F935F936F937F938F934A
:1003E0009F93AF93BF93CF93DF93EF93FF9380914E
:1003F0003001C0912F01D0E087FF24C0109285000A
:1004000010928400809130018F5F80933001809141
:100410003001082E000C990B8C179D0724F4809155
:1004200030018C30C4F18091840090918500049655
:1004300080349C4908F47AC08091840090918500B2
:10044000049676C080913001082E000C990B8C1711
:100450009D07C4F6E09130018E2FEE0F990BFC0141
:10046000EE0FFF1FE80FF91FE55FFE4F808186FF4B
:10047000C9CFE09130018E2FEE0F990BFC01EE0FEA
:10048000FF1FE80FF91FE55FFE4F808160E08F736B
:100490000E94A700B7CF2091840030918500E091A1
:1004A00030018E2FEE0F990BFC01EE0FFF1FE80FAE
:1004B000F91FE55FFE4F81819281820F931F909318
:1004C000890080938800E09130018E2FEE0F990B08
:1004D000FC01EE0FFF1FE80FF91FE55FFE4F808163
:1004E00086FF11C0E09130018E2FEE0F990BFC01B9
:1004F000EE0FFF1FE80FF91FE55FFE4F808161E0FF
:100500008F730E94A700FF91EF91DF91CF91BF9170
:10051000AF919F918F917F916F915F914F913F919B
:100520002F910F900FBE0F901F90189580E49CE9BB
:1005300090938900809388008FEF80933001E3CF00
:10054000789484B5826084BD84B5816084BD85B5AE
:10055000826085BD85B5816085BD80916E008160BA
:1005600080936E0010928100809181008260809360
:100570008100809181008160809381008091800062
:100580008160809380008091B10084608093B1008D
:100590008091B00081608093B00080917A00846087
:1005A00080937A0080917A00826080937A008091B3
:1005B0007A00816080937A0080917A0080688093CD
:1005C0007A001092C1008DE00E9488004CE7242E32
:1005D00040E0342E0EE910E058E5C52E52E0D52E4D
:1005E000E12CF12C809100018D30A9F4F101C4912E
:1005F000C7FDB1C08DE00E948800CC2309F47BC008
:10060000C23009F08CC08091B100887F84608093F3
:10061000B1008FECD4C08F3F09F09DC08DE0809376
:100620000001F101C491CF3F09F495C0C13019F127
:1006300048F0C23009F43DC0C7FD8DC08DE00E9476
:100640008800DECF14BC15BC84B5826084BD85B53E
:10065000816085BDF8018491E82FF0E0EE0FFF1F67
:10066000E358FF4F85919491E2EBF0E08491809301
:100670003E01C0E0BFCF10928000109281008091B7
:1006800081008860809381008091810081608093E7
:100690008100F8018491E82FF0E0EE0FFF1FE3588E
:1006A000FF4F85919491E2EBF0E0849180933D01BE
:1006B000A1CF1092B0001092B1008091B000826082
:1006C0008093B0008091B10081608093B100F80107
:1006D0008491E82FF0E0EE0FFF1FE358FF4F859164
:1006E000949190933C0180933B01E2EBF0E0849184
:1006F00080933A017FCF85B5887F836085BD8FEC7D
:1007000087BDC0924701D0924801E0924901F09222
:100710004A0180916E00826080936E001CC0C130DF
:1007200009F046C080918100887F816080938100BC
:1007300084E194E39093890080938800C092430100
:10074000D0924401E0924501F092460180916F0001
:10075000826080936F000E94F3002B013C0188EEC1
:10076000882E83E0982EA12CB12C0E94F3006419EE
:10077000750986099709683E734081059105A8F3BC
:1007800091E0891A9108A108B108E8EE4E0EE3E065
:100790005E1E611C711C81149104A104B10429F72F
:1007A00080E090E0892B09F41DCF0E9400001ACF51
:1007B000C23021F0C111CFCF84E1A2CF84E1809378
:1007C000B300C0923F01D0924001E0924101F0920B
:1007D000420180917000826080937000BCCF809154
:1007E0002F018C30F8F491E0980F90932F018093B3
:1007F000080190E0FC01EE0FFF1FE80FF91FE55F15
:10080000FE4F88EB9BE09283818384E08093060116
:1008100083E08093070184E00E94880080910701B3
:100820000C9488008FEF80930801EFCFEE0FFF1F2D
:0C0830000590F491E02D0994F894FFCF9E
:02083C00FF00BB
:107E0000112484B714BE81FFF0D085E080938100F7
:107E100082E08093C00088E18093C10086E0809377
:107E2000C20080E18093C4008EE0C9D0259A86E02C
:107E300020E33CEF91E0309385002093840096BBD3
:107E4000B09BFECF1D9AA8958150A9F7CC24DD24C4
:107E500088248394B5E0AB2EA1E19A2EF3E0BF2EE7
:107E6000A2D0813461F49FD0082FAFD0023811F036
:107E7000013811F484E001C083E08DD089C08234E0
:107E800011F484E103C0853419F485E0A6D080C0E4
:107E9000853579F488D0E82EFF2485D0082F10E0AE
:107EA000102F00270E291F29000F111F8ED06801E7
:107EB0006FC0863521F484E090D080E0DECF843638
:107EC00009F040C070D06FD0082F6DD080E0C81688
:107ED00080E7D80618F4F601B7BEE895C0E0D1E017
:107EE00062D089930C17E1F7F0E0CF16F0E7DF06D8
:107EF00018F0F601B7BEE89568D007B600FCFDCFD4
:107F0000A601A0E0B1E02C9130E011968C91119780
:107F100090E0982F8827822B932B1296FA010C0160
:107F200087BEE89511244E5F5F4FF1E0A038BF0790
:107F300051F7F601A7BEE89507B600FCFDCF97BE46
:107F4000E89526C08437B1F42ED02DD0F82E2BD052
:107F50003CD0F601EF2C8F010F5F1F4F84911BD097
:107F6000EA94F801C1F70894C11CD11CFA94CF0C13
:107F7000D11C0EC0853739F428D08EE10CD085E9AC
:107F80000AD08FE07ACF813511F488E018D01DD067
:107F900080E101D065CF982F8091C00085FFFCCF94
:107FA0009093C60008958091C00087FFFCCF809118
:107FB000C00084FD01C0A8958091C6000895E0E648
:107FC000F0E098E1908380830895EDDF803219F02E
:107FD00088E0F5DFFFCF84E1DECF1F93182FE3DFCA
:107FE0001150E9F7F2DF1F91089580E0E8DFEE27F6
:047FF000FF270994CA
:027FFE00040479
:0400000300007E007B
:00000001FF
